:100000000C942E000C9443000C9443000C94430079
:100010000C9443000C9443000C9443000C94430054
:100020000C9443000C9443000C9443000C94430044
:100030000C9443000C9443000C9443000C94430034
:100040000C9443000C9443000C9443000C94430024
:100050000C9443000C9443000C94430011241FBEE5
:10006000CFEFD4E0DEBFCDBF11E0A0E0B1E0E2E130
:10007000F2E002C005900D92AA31B107D9F70E94B3
:10008000B2000C9407010C94000080EC8093E40013
:1000900087EB8093E50087E08093E6008FE0809314
:1000A000E70008956630710590F5E82FF0E0EE0F57
:1000B000FF1FE050FF4F4081518160FF03C0AFE060
:1000C000B4E002C0A0EFB0E075956795FB01E45184
:1000D000FF4F20E030E018C0842F8F7090E00B2E8F
:1000E00002C0880F991F0A94E2F790819A23892B06
:1000F00080835595479555954795559547955595C1
:10010000479535962F5F3F4F243031052CF30895E6
:10011000EF92FF920F931F93CF93DF93C5E0D0E050
:1001200015C0DD23C4F02AE030E040E050E00E943A
:10013000C600E22EF32E042F152F862FBE010E943B
:1001400052006E2D7F2D802F912F219716161706A6
:100150001806190634F3DF91CF911F910F91FF908C
:10016000EF900895E1E6F0E0C0E8C08310820E94BD
:100170004500C5B965E17DEC8BE597E00E948800FC
:10018000ECEEF0E0808186668083FFCF052E97FB42
:100190001EF400940E94DD0057FD07D00E94E50088
:1001A00007FC03D04EF40C94DD005095409530953B
:1001B00021953F4F4F4F5F4F0895909580957095D3
:1001C00061957F4F8F4F9F4F0895A1E21A2EAA1B72
:1001D000BB1BFD010DC0AA1FBB1FEE1FFF1FA217F7
:1001E000B307E407F50720F0A21BB30BE40BF50BF4
:1001F000661F771F881F991F1A9469F7609570957D
:10020000809590959B01AC01BD01CF010895F894B4
:02021000FFCF1E
:1002120051151001111E111B500B411B411F1101E1
:0A022200511F511B500F411610151B
:00000001FF
