:100000000C942E000C9443000C9443000C94430079
:100010000C9443000C9443000C9443000C94430054
:100020000C9443000C9443000C9443000C94430044
:100030000C9443000C9443000C9443000C94430034
:100040000C9443000C9443000C9443000C94430024
:100050000C9443000C9443000C94430011241FBEE5
:10006000CFEFD4E0DEBFCDBF11E0A0E0B1E0E6EC21
:10007000F2E002C005900D92AA31B107D9F70E94B3
:1000800014010C9461010C940000E4EEF0E0808116
:100090008068808387EB8093E500E7EEF0E0808165
:1000A0008F60808387E08093E60008956630710555
:1000B000B8F58A3048F4E82FF0E0EE0FFF1FE0506B
:1000C000FF4F4081518102C040E050E060FF03C01B
:1000D000AFE0B4E002C0A0EFB0E075956795FB011A
:1000E000E451FF4F20E030E018C0842F8F7090E083
:1000F0000B2E02C0880F991F0A94E2F790819A2371
:10010000892B8083559547955595479555954795E6
:100110005595479535962F5F3F4F243031052CF389
:100120000895EF92FF920F931F93CF93DF93C5E053
:10013000D0E015C0DD23C4F02AE030E040E050E01C
:100140000E942001E22EF32E042F152F862FBE01D0
:100150000E9456006E2D7F2D802F912F219716160D
:1001600017061806190634F3DF91CF911F910F91EE
:10017000FF90EF900895CF92DF92EF92FF92CF938E
:10018000DF936B017C01C2E0D0E009C0C701B6017A
:100190000E942001672B682B692B71F021969E012C
:1001A0000D2E000C440B550B2C153D054E055F051F
:1001B0006CF381E090E002C080E090E0DF91CF91AD
:1001C000FF90EF90DF90CF9008958F929F92AF9223
:1001D000BF92CF92DF92EF92FF92CF93DF934B01CA
:1001E0005C01C2E0D0E00BC0C701B6010E94BB00B9
:1001F000892B21F0C701B6010E94910021966E0162
:100200000D2E000CEE08FF08C814D904EA04FB0404
:100210005CF3DF91CF91FF90EF90DF90CF90BF9094
:10022000AF909F908F900895E1E6F0E080E88083A2
:1002300010820E94450080E395E70E94E500FFCF11
:10024000052E97FB1EF400940E94370157FD07D03E
:100250000E943F0107FC03D04EF40C9437015095E7
:100260004095309521953F4F4F4F5F4F08959095A2
:100270008095709561957F4F8F4F9F4F0895A1E2B4
:100280001A2EAA1BBB1BFD010DC0AA1FBB1FEE1F10
:10029000FF1FA217B307E407F50720F0A21BB30B5B
:1002A000E40BF50B661F771F881F991F1A9469F7D7
:1002B00060957095809590959B01AC01BD01CF0133
:0602C0000895F894FFCF41
:1002C60051151801111E111B500B411B411F0940EE
:0A02D600511F511B500F4116101567
:00000001FF
