S00D00004C616262312E7372656375
S11300000C942E000C9443000C9443000C94430075
S11300100C9443000C9443000C9443000C94430050
S11300200C9443000C9443000C9443000C94430040
S11300300C9443000C9443000C9443000C94430030
S11300400C9443000C9443000C9443000C94430020
S11300500C9443000C9443000C94430011241FBEE1
S1130060CFEFD4E0DEBFCDBF11E0A0E0B1E0E0E926
S1130070F0E002C005900D92A030B107D9F70E94BC
S113008045000C9446000C940000FFCFF894FFCF79
S9030000FC
