:100000000C942E000C9443000C9443000C94430079
:100010000C9443000C9443000C9443000C94430054
:100020000C9443000C9443000C9443000C94430044
:100030000C9443000C9443000C9443000C94430034
:100040000C9443000C9443000C9443000C94430024
:100050000C9443000C9443000C94430011241FBEE5
:10006000CFEFD4E0DEBFCDBF11E0A0E0B1E0EAE425
:10007000F1E002C005900D92AA31B107D9F70E94B4
:1000800088000C94A3000C94000080EC8093E400A2
:1000900087EB8093E50087E08093E6008FE0809314
:1000A000E70008956630710590F5E82FF0E0EE0F57
:1000B000FF1FE050FF4F4081518160FF03C0AFE060
:1000C000B4E002C0A0EFB0E075956795FB01E45184
:1000D000FF4F20E030E018C0842F8F7090E00B2E8F
:1000E00002C0880F991F0A94E2F790819A23892B06
:1000F00080835595479555954795559547955595C1
:10010000479535962F5F3F4F243031052CF30895E6
:10011000E1E6F0E0C0E8C08310820E944500C5B966
:1001200060E070E089E090E00E94520061E070E0E1
:1001300082E090E00E94520062E070E080E090E097
:0A0140000E945200EDCFF894FFCFAB
:10014A0051151001111E111B500B411B411F1101AA
:0A015A00511F511B500F41161015E4
:00000001FF
